:020000040800F2
:10000000E8420020151C0108B50100081F1C01086A
:10001000B7010008BB010008BF0100080000000094
:10002000000000000000000000000000C301000804
:10003000C5010008000000002B1C0108C7010008D2
:100040002F1C01082F1C01082F1C01082F1C010860
:100050002F1C01082F1C01082F1C01082F1C010850
:100060002F1C01082F1C01082F1C01082F1C010840
:100070002F1C01082F1C01082F1C01082F1C010830
:100080002F1C01082F1C01082F1C01082F1C010820
:100090002F1C01082F1C01082F1C01082F1C010810
:1000A0002F1C01082F1C01082F1C01082F1C010800
:1000B0002F1C0108D9010008E10100082F1C0108CC
:1000C0002F1C01082F1C01082F1C01082F1C0108E0
:1000D0002F1C01082F1C0108E90100082F1C010832
:1000E0002F1C01082F1C01082F1C01082F1C0108C0
:1000F0002F1C01082F1C01082F1C01082F1C0108B0
:100100002F1C01082F1C01082F1C01082F1C01089F
:100110002F1C0108F10100082F1C01082F1C0108E9
:100120002F1C01082F1C01082F1C01082F1C01087F
:100130002F1C01082F1C01082F1C01082F1C01086F
:100140002F1C01082F1C01082F1C01088DA8000876
:100150002F1C01082F1C01082F1C01082F1C01084F
:100160002F1C01082F1C01082F1C01082F1C01083F
:100170002F1C01082F1C01082F1C01082F1C01082F
:100180002F1C01082F1C0108DFF80CD015F068FDAA
:1001900000480047A1010008E842002000BFFEE738
:1001A00000F05EF90249087001E000F0FFF8FCE79A
:1001B00000000020704700BFFEE700BFFEE700BF61
:1001C000FEE77047704710B50B480068401C0A49AD
:1001D000086006F011FE10BD10B507F002F810BD62
:1001E00010B507F005F910BD10B509F01EFC10BDE3
:1001F00010B509F0DCFC10BD8405002010B58C485A
:10020000C089401C8A49C88108468088401C00B2C9
:1002100088800846C088401C00B2C8800846008913
:10022000401C00B2088108464089401C00B2488149
:1002300008468089401C00B2888108460078012861
:1002400004D108464078401C487002E001207849FB
:10025000087008F0DDFC10BD10B5012006F00BFEA3
:1002600003F0B0FC10BD10B52DED028B002006F0A0
:1002700002FE00EE100AB8EE400ADFED6E0A80EED4
:10028000201AB0EE418A06F087FD00EE100AB8EEA3
:10029000400ADFED680A80EE201A674880ED001AF8
:1002A00007F038FDB0EE480A07F0BEFF6348D0ED16
:1002B000063AB0EE633AD0ED053AF0EE632AD0ED9F
:1002C000043AB0EE632AD0ED0C3AF0EE631AD0EDAA
:1002D0000B3AB0EE631AD0ED0A3AF0EE630AF6EE8E
:1002E000003A68EE233AB0EE630A554A554956483B
:1002F00001F0C4FCB0EE480A01F00CF95348B0EE2E
:10030000480A04F0C6FC06F047FD00EE100AB8EEFD
:10031000400ADFED480A80EE201A474880ED011AB6
:10032000BDEC028B10BD10B52DED028B022006F046
:10033000A2FD00EE100AB8EE400ADFED3E0A80EEA4
:10034000201AB0EE418A06F027FD00EE100AB8EE42
:10035000400ADFED380A80EE201A374880ED021A95
:10036000B0EE480A00F0BCFB06F016FD00EE100AE5
:10037000B8EE400ADFED2F0A80EE201A2E4880EDFD
:10038000031ABDEC028B10BD10B508F0CDFB10BDFB
:1003900010B500F06AFB10BD10B52D492D4806F0D0
:1003A00033F808F0A9FD0AF0E7FF10BD10B52048AA
:1003B000007801283BD12848008800B227490880EE
:1003C000FFF74AFF1A48B0F90400022804DB0020B6
:1003D00017498880FFF747FF1548B0F90600052840
:1003E00004DB00201249C880FFF79DFF1048B0F9D8
:1003F00008000A2804DB00200D490881FFF7C4FF2C
:100400000B48B0F90A00142804DB00200849488191
:10041000FFF7BEFF0648B0F90C00322804DB0020CD
:1004200003498881FFF7B8FF00200149087010BD1B
:100430004807002000247449580700209435002004
:1004400024000020200000201C0000208435002013
:100450002C320020202C00209405002002000020D7
:1004600010B54FF480600BF005F806F063FC07F060
:1004700092FA06F059FD4FF4C87007F0B7F804F08F
:10048000ADFE09F0C0F84FF4C87006F0A9FC1420C6
:1004900007F022FD08F04EFB134809F053FA00F074
:1004A0004FFA642006F09CFC0AF060FF08F010F997
:1004B00080F001000D4908700D48007810B908F06F
:1004C000EAFF0AE00948007810B908F0FBFF04E0F1
:1004D0000848007808B909F019F8042008F082FBF0
:1004E00006F004FD012010BD20A107000806002031
:1004F000C00500207606002038B50122FAA1FB488D
:1005000013F09AFD0446C4B100221146F6A014F07F
:100510008CFD044614B14FF0FF3038BD0022F2A12B
:10052000F24813F089FD04463CB10022EEA11046CA
:1005300013F082FD6FF00100EFE7EDA1ED4814F03C
:1005400032FA04463CB10022E7A1104613F074FDD4
:100550006FF00200E1E70122E7A1EA4813F097FDFE
:1005600004463CB10022E0A1104613F065FD6FF097
:100570000300D2E76B464022E349E24813F039FE1C
:100580000446009878B3DF4814F092F80122DFA106
:10059000DC4813F07CFD04463CB10022D2A1104699
:1005A00013F04AFD6FF00300B7E76B46C022D9494C
:1005B000D44813F01EFE0446009848B1D14814F008
:1005C00077F80022C8A1104613F036FD0120A4E7F9
:1005D000CC4814F06DF80022C3A1104613F02CFD96
:1005E0006FF0030099E7FFE7C64814F061F80022B6
:1005F000BDA1104613F020FD6FF004008DE738B563
:100600000022B9A1B94813F017FD0446C4B1002275
:100610001146B5A014F009FD044614B14FF0FF30A7
:1006200038BD0022B0A1B14813F006FD04463CB12C
:100630000022ADA1104613F0FFFC6FF00100EFE7C0
:10064000ABA1AC4814F0AFF904463CB10022A6A11E
:10065000104613F0F1FC6FF00200E1E70A22A6A1B8
:10066000A84813F014FD04463CB100229EA1104698
:1006700013F0E2FC6FF00300D2E76B464022A24980
:10068000A04813F0AFFE044674BB9E4814F010F867
:100690000A229EA19B4813F0FAFC04463CB10022BA
:1006A00091A1104613F0C8FC6FF00300B8E76B4649
:1006B000C0229849934813F095FE04464CB99148DE
:1006C00013F0F6FF002288A1104613F0B5FC0120BC
:1006D000A6E78C4813F0ECFF002283A1104613F02C
:1006E000ABFC6FF003009BE7864813F0E1FF0022AC
:1006F0007DA1104613F0A0FC6FF0040090E710B548
:100700008548814BD3E900219B68C0E90E13426301
:100710007D4BD3E903215B69C0E9111302647F4873
:10072000794B18330ECB08300EC07B4A764B2433FE
:100730000BCB58320BC2744890ED0D0A764880ED11
:10074000190A714890ED0E0A734880ED1A0A744830
:10075000704C1ECC54301EC064386E49D1E905344B
:100760000A69C969C0E91A3442660167694BD3E96D
:1007700009141A6ADB6AC0E91F43C0E91D216948F0
:10078000644BD3E90C41D3E90E23C0E91541C0E91C
:1007900017236049D1E911430A6CC96CC0E91A43B7
:1007A000426601675B49D1E91434D1E91621C0E9F9
:1007B0001D34C0E91F2110BD10B500F07FF905F010
:1007C000CAF810BD10B50022012147A014F02DFC7D
:1007D0009FED550A4F4880ED040A9FED530A80EDC6
:1007E000000AB7EE000A80ED080A9FED500A80ED7E
:1007F000060A9FED4E0A80ED020A9FED4C0A80ED3D
:100800000A0A9FED4B0A80ED050A9FED490A80ED2B
:10081000010AB0EE000A80ED090AB7EE000A80ED89
:10082000070AB7EE000A80ED030AB7EE000A80ED72
:100830000B0AB6EE000A80ED100AB6EE000A80ED53
:100840000C0A9FED3C0A80ED140A9FED3B0A80EDF7
:10085000120A9FED390A80ED0E0A9FED370A80EDEE
:10086000160A9FED360A80ED110A9FED340A80EDDD
:100870000D0A9FED2E0A80ED150AB7EE000A80EDF5
:10088000200AB7EE000A80ED220AB7EE000A80EDDA
:10089000210AB7EE000A80ED240AB7EE000A80EDC7
:1008A000260AB7EE000A80ED250AB7EE000A80EDB1
:1008B000180AB7EE000A80ED1A0AB7EE000A80EDBA
:1008C000190AB7EE000A80ED1C0AB7EE000A80EDA7
:1008D0001E0AB7EE000A80ED1D0AFFF790FEFFF733
:1008E0000EFFFFF769FF10BD303A00006C080020D2
:1008F0002F000000C428002073656E736F722E6293
:10090000696E00009C1800206C0700207069642E3E
:1009100062696E00AC07002094350020DC050020E1
:10092000E0280020A42900209A99193FCDCCCC3D85
:10093000CDCC0C40CDCC4C3FCDCC4C3D9A99993E82
:1009400010B5FFF7D9FD0446002C04DAFFF73AFF93
:10095000012051490870FFF7D2FEFFF72DFF10BDAF
:1009600010B504464D4894E80E0034300EC04C4893
:1009700094E80E000EC0494890ED190A484880EDF1
:100980000D0AFFF73CFE10BD10B50446434894E83D
:100990000E0040300EC0424894E80E000C300EC0ED
:1009A0003E4890ED1A0A3E4880ED0E0AFFF727FEFA
:1009B00010BD10B504463B4894E80E0008300EC048
:1009C000374894E80E0018300EC0FFF718FE10BD2F
:1009D00010B50446314894E80E0058300EC0304837
:1009E00094E80E0024300EC0FFF709FE10BD10B5CC
:1009F0002D482E49D1E916344A6D096E80E81C0055
:100A0000C16001462948D0E91A34426E006FC1E93D
:100A100005340A61C8612548D0E91E34426FD0F818
:100A20008000C1E909340A62C8620A46204CD4E950
:100A30001530D4E91714C2E90E14C2E90C3010467F
:100A40001B49D1E91942D1E91B31C0E91042C0E983
:100A500012311749D1E91D42D1E91F31C0E91442D1
:100A6000C0E91631FFF7CBFD10BD10B51148008865
:100A700020B110480088401C0E4908800D480088AD
:100A80003C2807DD00200B4908800B48007808B996
:100A9000FFF7ADFF10BD00000400002094350020DA
:100AA0006C070020DC050020AC070020E0280020B7
:100AB000A42900205E040020B0040020B7EE000A44
:100AC000FC4880ED180AB7EE000A80ED1C0AB7EE6C
:100AD000000A80ED200A9FEDF80A80ED300A704789
:100AE00010B52DED0E8BB0EE408AF448D0ED000A23
:100AF000B0EE600AB3EE0E1ADFEDF10A02F037F83D
:100B0000DFEDF00A80EE201AB3EE0E0A21EE000AA5
:100B1000ED4880ED000AE948D0ED010AF1EE600AE7
:100B2000B0EE600AB3EE0E1ADFEDE50A02F01FF830
:100B3000DFEDE40A80EE201AB3EE0E0A21EE000A81
:100B4000E14880ED010AE148007818BBDB48D0EDB0
:100B5000030AB0EE600A9FEDDE1ADFEDD90A02F05B
:100B600021F8DFEDD80A80EE201A9FEDDA0A21EE97
:100B7000000ABDEEC00A10EE100A00B200EE100A24
:100B8000F8EEC00AD04890ED020A00EE880A80ED27
:100B9000020A36E0CC4890ED020ACF48D0ED000AB8
:100BA00030EEC00A10EE101A084614F0D6FE41ECE2
:100BB0001C0B18EE100A14F0D0FE41EC1E0B9FED3A
:100BC000C70B53EC102B14F045FE41EC1D0B53ECFE
:100BD0001C2B14F03FFE41EC1A0BBB4890ED020AAF
:100BE00010EE101A084614F0B8FE41EC1B0B53EC43
:100BF0001A2B14F088FD41EC190B14F0F1FEB249E8
:100C00008860B148D0ED020AB0EE600A02F018F830
:100C1000AD4880ED020AB348D0ED000AAA4890ED35
:100C2000001A70EE810AB04890ED001A70EEC10A09
:100C3000B0EE600A02F004F8AC4880ED000AA94862
:100C4000D0ED010AA04890ED011A70EE810AA84883
:100C500090ED001A70EEC10AB0EE600A01F0F0FFEC
:100C6000A24880ED010A9F48D0ED020A964890ED17
:100C7000021A70EE810A984890ED001A70EEC10ACF
:100C8000B0EE600A01F0DCFF984880ED020A90EDBA
:100C9000000AB5EEC00AF1EE10FA02DD90ED000A8E
:100CA00004E0924890ED000AB1EE400AF3EE0E0A1D
:100CB00080EE201A8D4880ED2D1A90ED010AB5EED8
:100CC000C00AF1EE10FA02DD90ED010A04E0874857
:100CD00090ED010AB1EE400AF3EE0E0A80EE201A02
:100CE000824880ED2E1A90ED020AB5EEC00AF1EEB0
:100CF00010FA02DD90ED020A04E07C4890ED020A51
:100D0000B1EE400AF3EE0E0A80EE201A774880ED2D
:100D10002F1ADFED780A80EE880AD0ED000A90EDF8
:100D2000031A70EEC10A90ED161AF2EE041A21EEC3
:100D3000211A60EE810A20EE200A80ED0C0ADFED18
:100D40006D0A80EE880AD0ED010A90ED041A70EE6B
:100D5000C10A90ED1A1AF2EE041A21EE211A60EE81
:100D6000810A20EE200A80ED0D0ADFED620A80EE96
:100D7000880AD0ED020A90ED051A70EEC10A90EDD6
:100D80001E1AF2EE041A21EE211A60EE810A20EEFC
:100D9000200A80ED0E0A90ED170AD0ED000A60EEF1
:100DA000200A90ED060A00EE880A80ED060A90ED12
:100DB0001B0AD0ED010A60EE200A90ED070A00EE52
:100DC000880A80ED070A90ED1F0AD0ED020A60EE56
:100DD000200A90ED080A00EE880A80ED080A4648CD
:100DE00090ED000AF6EE000A20EE200AF3EE0E0A5D
:100DF00020EE200A3D4880ED090A3F4890ED000AA8
:100E0000F6EE000A20EE200AF3EE0E0A20EE200A8B
:100E1000364880ED0A0A384890ED000AF6EE000ADE
:100E200020EE200AF3EE0E0A20EE200A2F4880ED75
:100E30000B0A90ED060AD0ED090AF1EE600AB4EE55
:100E4000E00AF1EE10FA04D290ED090AB1EE400A80
:100E50000FE0264890ED060AD0ED090AB4EEE00A4C
:100E6000F1EE10FA02DD90ED090A02E01F4890ED64
:100E7000060A1E4880ED060A90ED070AD0ED0A0A20
:100E8000F1EE600AB4EEE00AF1EE10FA04D290ED51
:100E90000A0AB1EE400A34E0144890ED070AD0ED9A
:100EA0000A0AB4EEE00AF1EE10FA27DD90ED0A0A24
:100EB00027E00000E0280020CDCC4C3E202C002074
:100EC000000000000000FA43682A00200C00002007
:100ED0000000204200001643240000201F85EB5133
:100EE000B81E0940742A00201C000020A4290020FC
:100EF000200000200AD7A33B10000020FE4890ED00
:100F0000070AFD4880ED070A90ED080AD0ED0B0AAC
:100F1000F1EE600AB4EEE00AF1EE10FA04D290EDC0
:100F20000B0AB1EE400A0FE0F34890ED080AD0ED4D
:100F30000B0AB4EEE00AF1EE10FA02DD90ED0B0AB6
:100F400002E0ED4890ED080AEB4880ED080A90EDCC
:100F5000000A80ED030A90ED010A80ED040A90ED8D
:100F6000020A80ED050A90ED000ADFEDE40AB4EE16
:100F7000E00AF1EE10FA02D29FEDE00A0FE0DE483F
:100F800090ED000ADFEDDE0AB4EEE00AF1EE10FAB1
:100F900002DD9FEDDB0A02E0D74890ED000AD6485B
:100FA00080ED000A90ED010ADFEDD40AB4EEE00A0C
:100FB000F1EE10FA02D29FEDD10A0FE0CE4890ED8B
:100FC000010ADFEDCF0AB4EEE00AF1EE10FA02DD1D
:100FD0009FEDCB0A02E0C84890ED010AC64880EDBB
:100FE000010A90ED020ADFEDC50AB4EEE00AF1EE67
:100FF00010FA02D29FEDC10A0FE0BF4890ED020A3D
:10100000DFEDBF0AB4EEE00AF1EE10FA02DD9FED6B
:10101000BC0A02E0B84890ED020AB74880ED020A27
:1010200090ED000AD0ED0C0A30EE200AD0ED060A51
:1010300030EE200AD0ED150A20EE200A80ED120ACB
:1010400090ED010AD0ED0D0A30EE200AD0ED070A2E
:1010500030EE200AD0ED190A20EE200A80ED130AA6
:1010600090ED020AD0ED0E0A30EE200AD0ED080A0B
:1010700030EE200AD0ED1D0A20EE200A80ED140A81
:10108000BDEC0E8B10BD10B52DED048B8AB0F0EECB
:10109000408AB0EE609AB0EE418A9FED9A0AB4EEB3
:1010A000C08AF1EE10FA02D29FED960A0BE09FED96
:1010B000960AB4EEC08AF1EE10FA02DD9FED920AB4
:1010C00001E0B0EE480AB0EE408AB1EE680A30EEB8
:1010D000090A30EE080A8DED040A38EE890A30EE6E
:1010E000480A8DED050A38EEC90A30EE080A8DED82
:1010F000060AB1EE680A30EE490A30EE480A8DED74
:10110000070A002429E004A800EB840090ED000AFF
:10111000DFED7E0AB4EEE00AF1EE10FA02D29FEDA6
:101120007B0A13E004A800EB840090ED000ADFEDD9
:10113000780AB4EEE00AF1EE10FA02DD9FED740ACF
:1011400004E004A800EB840090ED000A04A800EB82
:10115000840080ED000A601CC4B2042CD3DB9DED3A
:10116000040A8DED000A9DED050A8DED010A9DED45
:10117000060A8DED020A9DED070A8DED030ADDEDED
:10118000000A644890ED000A634890ED001A01EEF1
:10119000200A624880ED000ADDED010A5D4890ED0D
:1011A000000A5D4890ED001A01EE200A5B4880EDD0
:1011B000010ADDED020A574890ED000A564890ED0D
:1011C000001A01EE200A554880ED020ADDED030AFF
:1011D000504890ED000A504890ED001A01EE200AA8
:1011E0004E4880ED030A4E48007800285FD04D48F5
:1011F000007870BB002429E0484800EB840090EDA3
:10120000000ADFED490AB4EEE00AF1EE10FA02D26C
:101210009FED450A13E0414800EB840090ED000A81
:10122000DFED3B0AB4EEE00AF1EE10FA02DD9FEDCD
:10123000380A04E0394800EB840090ED000A374892
:1012400000EB840080ED000A601CC4B2042CD3DBE8
:101250003AE0FFE7002427E0304800EB840090EDFF
:10126000000AB5EEC00AF1EE10FA02D21FEDEC0A48
:1012700013E02A4800EB840090ED000ADFED240A19
:10128000B4EEE00AF1EE10FA02DD9FED210A04E06F
:10129000224800EB840090ED000A204800EB840017
:1012A00080ED000A601CC4B2042CD5DB0CE00024E5
:1012B00008E09FED1E0A194800EB840080ED000A4B
:1012C000601CC4B2042CF4DB144890ED000ABDEE9F
:1012D000C00A10EE100A00B2ADF820000F4890EDE1
:1012E000010ABDEEC00A10EE100A00B2ADF82200ED
:1012F0000A4890ED020A1BE0A42900200000B4C2B5
:101300000000B4420000C8C30000C84300007AC413
:1013100000007A440800002010000020B42A0020B9
:10132000B00400200C000020000048430000000032
:10133000BDEEC00A10EE100A00B2ADF82400F74866
:1013400090ED030ABDEEC00A10EE100A00B2ADF82F
:1013500026004FF47A72002108A806F0B6FA0AB007
:10136000BDEC048B10BD10B52DED028BB0EE408AA4
:10137000EB4890ED020ADFEDEB0A30EE200AEA4876
:1013800080ED000AE94890ED000A1FED211AC0EE39
:10139000010AE74890ED000A70EEC00A9FEDE50AE9
:1013A00028EE001A90ED000A01EE200A80ED000AF6
:1013B00090ED000AB5EEC00AF1EE10FA02D21FED70
:1013C000250A0FE0DA4890ED000AF7EE000AB4EEC5
:1013D000E00AF1EE10FA02DDB7EE000A02E0D448AE
:1013E00090ED000AD44880ED000ACF4890ED000A45
:1013F000DFEDD20AB4EEE00AF1EE10FA03D20120DA
:10140000CF49087002E00020CD490870CD4800782F
:1014100078B3CD480078E8B9C34890ED000AB5EE3E
:10142000C00AF1EE10FA02D21FED400A0FE0BE48EA
:1014300090ED000ADFEDBB0AB4EEE00AF1EE10FA1F
:1014400002DD9FEDB80A02E0B74890ED000AB64809
:1014500080ED000AB7EE001ABC480078B249D1ED21
:10146000000AB0EE480A04F0F6FAB04880ED000A2F
:101470002FE0FFE7B4480078E8B9AB4890ED000AE8
:10148000B5EEC00AF1EE10FA02D21FED580A0FE0D5
:10149000A54890ED000ADFEDAE0AB4EEE00AF1EEE9
:1014A00010FA02DD9FEDAA0A02E09F4890ED000AC3
:1014B0009D4880ED000A1FED631AA44800789A4900
:1014C000D1ED000AB0EE480A04F0C5FA974880ED65
:1014D000000A964890ED000AB5EEC00AF1EE10FA47
:1014E00002D21FED6E0A0FE0904890ED000ADFED8A
:1014F000990AB4EEE00AF1EE10FA02DD9FED950ACA
:1015000002E08A4890ED000A884880ED000ABDECB0
:10151000028B10BD00B52DED028B83B0B0EE408A7A
:101520008D4890ED120AF3EE0E0A80EE201A9FED20
:101530008B0A21EE000A8DED000AD0ED130AB3EEFE
:101540000E1A80EE810ADFED850A20EE200A8DED6D
:10155000010A90ED140AF3EE0E0A80EE201A9FEDB8
:10156000800A21EE000A8DED020A9DED000A7D48F9
:1015700080ED000A9DED010A80ED010A9DED020A51
:1015800080ED020A90ED000ADFED770AB4EEE00A82
:10159000F1EE10FA02D29FED740A0FE0714890ED5F
:1015A000000ADFED6E0AB4EEE00AF1EE10FA02DD99
:1015B0009FED6A0A02E06B4890ED000A694880EDF1
:1015C000000A90ED010ADFED680AB4EEE00AF1EEE0
:1015D00010FA02D29FED640A0FE0624890ED010A12
:1015E000DFED5E0AB4EEE00AF1EE10FA02DD9FEDE7
:1015F0005B0A02E05B4890ED010A5A4880ED010A5F
:1016000090ED020ADFED590AB4EEE00AF1EE10FAAD
:1016100002D29FED560A0FE0524890ED020ADFED2C
:10162000500AB4EEE00AF1EE10FA02DD9FED4C0A2A
:1016300002E04C4890ED020A4A4880ED020ADFEDD4
:101640004C0A80EE880A4B48D0ED0A0A4A4890EDD1
:10165000001A70EEC10A20EE200A484880ED0F0AF9
:10166000DFED430A80EE880A4248D0ED0B0AF1EE26
:10167000600A414890ED011A70EEC10A20EE200A7E
:101680003E4880ED100ADFED3A0A80EE880A3948BC
:10169000D0ED0C0AF1EE600A374890ED021A70EEB8
:1016A000C10A20EE200A354880ED110A2D4890ED40
:1016B000000A3048D0ED0A0A30EE600AF7EE000A60
:1016C00020EE200A2D4880ED000A264890ED010A00
:1016D0002848D0ED0B0A30EE200AF7EE000A20EE83
:1016E000200A264880ED010A1E4890ED020A214892
:1016F000D0ED0C0A30EE200AF7EE000A20EE200AA8
:101700001E4880ED020A90ED000AB5EEC00AF1EE27
:1017100010FA35DD90ED000A37E00000B42A002011
:10172000202C00200000FA431400002008000020B4
:10173000180000203433FB41100000200000C84294
:101740000C0000202C32002079040020B00400207E
:101750000000AF4300004844A42900200000964345
:10176000000016438C2A0020000096C3000016C318
:101770006F12033B94350020982A0020E0280020B7
:10178000FE4890ED000AB1EE400A5FED0C0A80EED3
:10179000201AFA4880ED2D1A90ED010AB5EEC00A24
:1017A000F1EE10FA02DD90ED010A04E0F34890ED4D
:1017B000010AB1EE400A5FED170A80EE201AEF48E9
:1017C00080ED2E1A90ED020AB5EEC00AF1EE10FA85
:1017D00002DD90ED020A04E0E84890ED020AB1EE65
:1017E000400A5FED210A80EE201AE44880ED2F1AAE
:1017F0005FED210A80EE880AD0ED160A90ED0F1AEF
:10180000FAEE041A21EE211A60EE810A20EE200A77
:1018100080ED0C0A5FED2A0A80EE880AD0ED1A0AE4
:1018200090ED101AFAEE041A21EE211A60EE810AE8
:1018300020EE200A80ED0D0A5FED330A80EE880A63
:10184000D0ED1E0A90ED111AFAEE041A21EE211ABB
:1018500060EE810A20EE200A80ED0E0A90ED000A6B
:10186000D0ED0F0A30EE600AD0ED170A60EE200AC4
:1018700090ED060A00EE880A80ED060A90ED010A56
:10188000D0ED100A30EE600AD0ED1B0A60EE200A9F
:1018900090ED070A00EE880A80ED070A90ED020A33
:1018A000D0ED110A30EE600AD0ED1F0A60EE200A7A
:1018B00090ED080A00EE880A80ED080AB04890ED25
:1018C000000AF6EE000A20EE200A5FED5C0A20EE28
:1018D000200AAA4880ED090AA94890ED000AF6EE10
:1018E000000A20EE200A5FED630A20EE200AA348DA
:1018F00080ED0A0AA24890ED000AF6EE000A20EEFA
:10190000200A5FED6A0A20EE200A9C4880ED0B0A4F
:1019100090ED060AD0ED090AF1EE600AB4EEE00A95
:10192000F1EE10FA04D290ED090AB1EE400A0FE090
:10193000924890ED060AD0ED090AB4EEE00AF1EE05
:1019400010FA02DD90ED090A02E08C4890ED060ADB
:101950008A4880ED060A90ED070AD0ED0A0AF1EEFA
:10196000600AB4EEE00AF1EE10FA04D290ED0A0A31
:10197000B1EE400A0FE0814890ED070AD0ED0A0A67
:10198000B4EEE00AF1EE10FA02DD90ED0A0A02E090
:101990007A4890ED070A794880ED070A90ED080A29
:1019A000D0ED0B0AF1EE600AB4EEE00AF1EE10FAA7
:1019B00004D290ED0B0AB1EE400A0FE06F4890EDB3
:1019C000080AD0ED0B0AB4EEE00AF1EE10FA02DDDF
:1019D00090ED0B0A02E0694890ED080A674880ED37
:1019E000080A90ED300AF7EE000A30EEC00AD0ED9A
:1019F000150A20EE200AD0ED000A90ED0C1A70EEC8
:101A0000810A90ED061A70EE810A60EE200A90EDD0
:101A1000301A5C48D0ED2D1A9FED5B0A9FED5B2AD2
:101A200002EE210AB5EEC00AF1EE10FA02D29FEDE5
:101A3000580A1BE05348D0ED2D1A9FED530A9FED35
:101A4000532A02EE210AF7EE001AB4EEE10AF1EE93
:101A500010FA02DDB7EE000A08E04A48D0ED2D1A70
:101A60009FED490A9FED492A02EE210A21EE000A64
:101A7000484890ED001A40EE010AB0EE000A20EE50
:101A8000800A3E4880ED120A90ED300AF7EE000A17
:101A900030EEC00AD0ED190A20EE200AD0ED010A7E
:101AA00090ED0D1A70EE810A90ED071A70EE810A22
:101AB00060EE200A90ED301A3248D0ED2E1A9FEDDC
:101AC000320A9FED322A02EE210AB5EEC00AF1EE8B
:101AD00010FA02D29FED2E0A1BE02A48D0ED2E1AF2
:101AE0009FED290A9FED292A02EE210AF7EE001A3E
:101AF000B4EEE10AF1EE10FA02DDB7EE000A08E0FA
:101B00002048D0ED2E1A9FED200A9FED202A02EEEC
:101B1000210A21EE000A1F4890ED011A40EE010A49
:101B2000B0EE000A20EE800A144880ED130A90ED12
:101B3000300AF7EE000A30EEC00AD0ED1D0A20EEA2
:101B4000200AD0ED020A90ED0E1A70EE810A90ED97
:101B5000081A70EE810A60EE200A90ED301A0948EA
:101B6000D0ED2F1A9FED080A9FED082A02EE210AF8
:101B7000B5EEC00AF1EE10FA11D20DE0E028002017
:101B800010000020A42900206666E63ECDCC0C3F64
:101B9000000000008C2A00201FED030A1BE03248E1
:101BA000D0ED2F1A1FED080A1FED082A02EE210AB8
:101BB000F7EE001AB4EEE10AF1EE10FA02DDB7EE2C
:101BC000000A08E02848D0ED2F1A1FED110A1FED7A
:101BD000112A02EE210A21EE000A244890ED021A91
:101BE00040EE010AB1EE000A20EE800A204880EDA6
:101BF000140AB0EE480AFFF7B6FB1D48D0ED141AE0
:101C0000B0EE611AD0ED131AF0EE610AD0ED121A9F
:101C1000B0EE610AFFF737FA154890ED000A80ED43
:101C2000030A90ED010A80ED040A90ED020A80EDAE
:101C3000050A104890ED0A0A0F4880ED000A0D4889
:101C400090ED0B0AB1EE400A0B4880ED010A0948FD
:101C500090ED0C0AB1EE400A074880ED020A03B08D
:101C6000BDEC028B00BD0000A42900208C2A0020BE
:101C7000E028002094350020982A002070B52DED32
:101C8000108BB0EE408AB0EE60EAF0EE41EAB0EEC2
:101C900061FAF0EE429AB0EE629AF0EE438A0446A0
:101CA0000D4616469FEDFE0A28EE000AF3EE040AE2
:101CB00020EE200AF0EE40AAFA48D0ED080A60EEC5
:101CC000A00A90ED091AD0ED091A41EE210A90ED13
:101CD0000A1AD0ED0A1A41EE210AB0EE600A00F0AD
:101CE000B1FDF14880ED000A90ED000AB5EEC00AA2
:101CF000F1EE10FA38D0EB48D0ED080AEA4890ED42
:101D0000001A80EE810AE948D0ED000A70EE600A00
:101D100090ED000A0AEEA00A80ED000AE148D0ED3D
:101D2000090AE14890ED001A80EE810ADF48D0ED03
:101D3000010A70EE600A90ED010A0AEEA00A80ED39
:101D4000010AD848D0ED0A0AD74890ED001A80EE73
:101D5000810AD648D0ED020A70EE600A90ED020AC0
:101D60000AEEA00A80ED020AD14AD049D14803F018
:101D7000E9FCCF48D0ED000A60EEA00A90ED011A10
:101D8000D0ED011A41EE210AB0EE600A00F05AFDD2
:101D9000C94880ED000AC64890ED000AB5EEC00AB9
:101DA000F1EE10FA36D090ED010AB5EEC00AF1EE70
:101DB00010FA2FD090ED020AB5EEC00AF1EE10FA3B
:101DC00028D0BD4890ED000AB5EEC00AF1EE10FA39
:101DD00020D0B74890ED000AB748D0ED000A80EE59
:101DE000201AB0EE41BAB24890ED010AB248D0EDE7
:101DF000000A80EE201AF0EE41BAF0EE4B0AB0EE87
:101E00006B0A00F064FCDFEDAD0A20EE200AAC485E
:101E100080ED000AAB4890ED010AD0ED030A20EEF8
:101E2000200AD0ED000A90ED021A00EEC10AF0EE91
:101E3000000A20EE200A9F4880ED000AA14890ED9C
:101E4000000AD0ED010A20EE200AD0ED020A90ED42
:101E5000031A00EE810AF0EE000A20EE200A9548EF
:101E600080ED010A974890ED010A20EE000AD0EDBE
:101E7000020A90ED021A00EE810AF7EE000AB0EEB7
:101E8000001A41EE400A8B48C0ED020A8E480078E5
:101E900000285ED08C48007802280CD19FED8B0A78
:101EA0008B4880ED000A9FED890A80ED010A9FEDC5
:101EB000870A80ED020A864890ED000A7D4890ED81
:101EC000001ADFED841AF0EE690A41EEC10A9FEDB7
:101ED000821A60EE810A9FED811A00EE810A7C4829
:101EE00080ED000A90ED010A724890ED011ADFEDD5
:101EF000791AF0EE490A41EEC10A9FED771A60EEB9
:101F0000810A9FED761A00EE810A714880ED010A80
:101F100090ED020A674890ED021ADFED6E1AF0EEBE
:101F2000680A41EEC10A9FED6C1A60EE810A9FEDCE
:101F30006B1A00EE810A664880ED020A624800785A
:101F4000401C6149087008460078522801DB0020D7
:101F500008705F4890ED000A564890ED001ADFEDDA
:101F60005D1AF0EE690A41EEC10A9FED5B1A11EEAF
:101F7000200A5B4880ED000A554890ED010A4D4863
:101F800090ED011ADFED531AF0EE490A41EEC10A55
:101F90009FED511A11EE200A514880ED010A4C487C
:101FA00090ED020A434890ED021ADFED4A1AF0EE76
:101FB000680A41EEC10A9FED481A11EE200A48480E
:101FC00080ED020A90ED000A3A48D0ED000A20EEBA
:101FD000200A4348D0ED010A364890ED011A00EE80
:101FE000810A3F48D0ED020A324890ED021A00EE15
:101FF000810A3C4880ED020A69EEA90A49EE090A05
:1020000048EEA80AB0EE600A00F01CFC364880EDED
:10201000000AF5EEC09AF1EE10FA02DDB0EE690AA0
:1020200001E0B1EE690ADFED310AB4EEE00AF1EE4B
:1020300010FA7DD2B5EEC09AF1EE10FA02DDB0EEE4
:10204000490A01E0B1EE490ADFED280AB4EEE00AE0
:10205000F1EE10FA6CD2F5EEC08AF1EE10FA02DD64
:10206000B0EE680A01E0B1EE680ADFED200AB4EED6
:10207000E00AF1EE10FA5BD21B4890ED000AC9EEBF
:10208000800AF0EE609A90ED000AC9EE000AB0EE08
:10209000609A90ED000AC8EE800AF0EE608A27E0B0
:1020A000C3F5C840DC050020480000205C2B002060
:1020B0002C2B0020E42A002044000020333365420A
:1020C00054000020280000204C00002000000000E8
:1020D000502B0020000080455C201940CDCC4C3CAA
:1020E000442B0020382B0020380000200080894538
:1020F00090ED000ADFEDFE0AB4EEE00AF1EE10FA10
:1021000054DD90ED000A5FED070AB4EEE00AF1EE4F
:1021100010FA4BD2F74890ED020A20EE090AD0EDF2
:10212000010A08EEE00AF44880ED030AF14800E0F5
:1021300033E090ED000A20EE280AD0ED020A09EE05
:10214000E00AED4880ED040A1FED2B0A28EE000A94
:10215000F7EE000A20EE20AA90ED030AD0ED060A61
:1021600070EE600A90ED060A0AEE200A80ED060A7B
:1021700090ED040AD0ED070A70EE600A90ED070AB0
:102180000AEE200A80ED070A90ED060A80ED000AAB
:1021900090ED070A80ED010A08E01FED340AD648E9
:1021A00080ED000A1FED370A80ED010AD24890ED5C
:1021B000090AD0ED000A1FED3B1A60EE810AB0EE6D
:1021C000001A60EE810A00EE880A80ED090A90ED9F
:1021D0000A0AD0ED010A1FED431A60EE810AB0EE43
:1021E000001A60EE810A00EE880A80ED0A0A90ED7E
:1021F0000B0AD0ED020A1FED4B1A60EE810AB0EE19
:10220000001A60EE810A00EE880A80ED0B0A90ED5C
:10221000090ADFEDBA0AB4EEE00AF1EE10FA02D2D2
:102220009FEDB60A0FE0B44890ED090ADFEDB40A5D
:10223000B4EEE00AF1EE10FA02DD9FEDB10A02E021
:10224000AD4890ED090AAC4880ED090A90ED0A0A04
:10225000DFEDAA0AB4EEE00AF1EE10FA02D29FED29
:10226000A70A0FE0A44890ED0A0ADFEDA50AB4EE34
:10227000E00AF1EE10FA02DD9FEDA10A02E09E48AD
:1022800090ED0A0A9C4880ED0A0A90ED0B0ADFEDFA
:102290009B0AB4EEE00AF1EE10FA02D29FED970A23
:1022A0000FE0954890ED0B0ADFED950AB4EEE00AD9
:1022B000F1EE10FA02DD9FED920A02E08E4890EDF9
:1022C0000B0A8D4880ED0B0A8A4890ED020AB5EEA4
:1022D000C00AF1EE10FA2ADD8A48007898B18A48DF
:1022E000D0ED000A894890ED001A70EEC10AB0EEF8
:1022F000600A00F0A5FCDFED860A20EE200A854882
:1023000080ED000A18E08048D0ED000A7F4890ED8B
:10231000001A70EEC10AB0EE600A00F091FCDFED29
:102320007E0A20EE200A7B4880ED000A04E01FEDC3
:10233000990A784880ED000A6F4890ED000AD0EDC8
:10234000090A30EE200ADFED750A20EE200A6948FE
:1023500090ED001A6F48D0ED001AF0EE4E0A41EEF3
:10236000610A9FED6F1A00EE810A634880ED0C0A46
:1023700090ED010AD0ED0A0A30EE200ADFED670A7F
:1023800020EE200A5B4890ED011A6248D0ED001A59
:10239000F0EE6E0A41EE610A9FED611A00EE810ACD
:1023A000554880ED0D0A5348D0ED020A594890ED8A
:1023B000001AB0EE4F0A00EEC10ADFED590A20EE16
:1023C000200A4D4880ED0E0A564890ED010AB1EE04
:1023D000400A4948D0ED0C0A20EE200A5148D0EDC1
:1023E000020A454890ED0D1A00EEC10A4D48D0EDA5
:1023F000030A414890ED0E1A00EEC10A4948D0ED9B
:10240000000A40EE080AC0ED000A90ED000A3A48C2
:10241000D0ED0C0A20EE200A4248D0ED020A3648E0
:1024200090ED0E1A00EE810A3E48D0ED030A3248C4
:1024300090ED0D1A00EEC10A3A48D0ED010A40EEC7
:10244000080AC0ED010A90ED000A2B48D0ED0D0AF4
:1024500020EE200A3348D0ED010A274890ED0E1AED
:1024600000EEC10A2F48D0ED030A234890ED0C1A64
:1024700000EE810A2B48D0ED020A40EE080AC0EDBA
:10248000020A90ED000A1C48D0ED0E0A20EE200A48
:102490002448D0ED010A184890ED0D1A00EE810A8B
:1024A0002048D0ED020A144890ED0C1A00EEC10A43
:1024B0001C48D0ED030A40EE080AC0ED030AD0ED37
:1024C000000A60EEA00A90ED011AD0ED011A41EE6B
:1024D000210A90ED021AD0ED021A41EE210A90ED88
:1024E000031AD0ED031A41EE210AB0EE600A1BE098
:1024F00000806D45E42A0020F02A002034FA0EBD49
:1025000034FA0E3DB00400205400002024000020C6
:1025100090C2753D500000206766E63E9A99993E4C
:1025200034FA8E3C2800002000F08CF95C4880EDE5
:10253000000A5C4890ED000A5948D0ED000A80EE90
:10254000201A584880ED001A90ED010A5448D0ED49
:10255000000A80EE201A534880ED011A90ED020A1D
:102560004F48D0ED000A80EE201A4E4880ED021A46
:1025700090ED030A4A48D0ED000A80EE201A49483F
:1025800080ED031A90ED011A21EE011AD0ED021A26
:1025900090ED022A01EE821AF7EE001AB0EE002A40
:1025A00042EE411AF0EE610A90ED001AD0ED011AE8
:1025B00021EE211AD0ED021A90ED032A01EE821AC3
:1025C000F0EE001A21EE211AB0EE410A00F07FF879
:1025D000DFED350A20EE200A84ED000A314890ED47
:1025E000010AD0ED030A20EE200AD0ED000A90ED9A
:1025F000021A00EEC10AF0EE000A20EE200A10EEE8
:10260000101A084613F0A9F941EC1D0BB0EE4D0A63
:10261000F0EE6D0A13F0DCFBB0EE40CAF0EE60CADB
:102620009FED220B53EC102B51EC1C0B13F012F905
:1026300041EC1B0B13F0D4F928601A4890ED001AF6
:1026400021EE011AD0ED011A90ED012A01EE821A55
:10265000F7EE001AB0EE002A52EE011AF0EE610A0F
:1026600090ED011AB1EE411AD0ED021A21EE211AB5
:10267000D0ED001A90ED032A01EEC21AF0EE001A16
:1026800021EE211AB0EE410A00F021F8DFED060A32
:1026900020EE200A86ED000ABDEC108B70BD000014
:1026A0003C00002028000020333365420000006019
:1026B00066A64C40F0EE400AF5EEC00AF1EE10FAC4
:1026C00002DBB0EE600A7047B1EE600AFBE700B5CE
:1026D000B0EE403AB0EE602AB5EEC03AF1EE10FA34
:1026E00004D0B5EEC02AF1EE10FA02D19FEDFB1A2C
:1026F00099E0B0EE430AFFF7DDFFF0EE403AB0EEAE
:10270000420AFFF7D7FFF0EE402AF4EEE23AF1EE8C
:1027100010FA02D283EEA24A01E082EEA34A9FEDB4
:10272000F00AB4EEC04AF1EE10FA02D2F0EE441A0A
:102730002DE0DFEDEC0AB6EE000A14EE200AF0EE12
:10274000404ABDEEE40A10EE100A00EE100AB8EEA0
:10275000C00A34EEC00AF0EE404AE34901EB8001C2
:1027600091ED000AF0EE401ADF4A411C02EB8101B4
:1027700091ED000A114601EB8001D1ED000A70EEE7
:10278000600AB0EE610A00EEA40AF0EE401AF4EE20
:10279000E32AF1EE10FA20DDB5EEC02AF1EE10FAD0
:1027A0000ADBB5EEC03AF1EE10FA02DBB0EE611AC8
:1027B00039E0B1EE611A36E09FEDCC1AB5EEC03AC1
:1027C000F1EE10FA04DB31EE610AB0EE401A2AE0B5
:1027D00031EEC10AB0EE401A25E0B5EEC03AF1EE96
:1027E00010FA10DB9FEDC21AB5EEC02AF1EE10FA16
:1027F00004DB31EE610AB0EE401A14E031EE210A3A
:10280000B0EE401A0FE09FEDBB1AB5EEC02AF1EE14
:1028100010FA04DB31EE210AB0EE401A03E031EE8B
:10282000610AB0EE401AB0EE410A00BD00B5B0EE4C
:10283000405AF0EE605AF0EE450AB0EE650AFFF736
:1028400046FF00BDB0EE401AB7EE080AB0EE402ACF
:10285000B6EE000A21EE000AF0EE401AF0EE410A50
:1028600010EE900AA449A1EB600000EE900A61EE20
:10287000A02AB7EE080A02EEE00A20EE200AF0EEE7
:10288000400A61EEA02AB7EE080A02EEE00A20EE46
:10289000200AF0EE400A21EE200A704710B52DED17
:1028A0000A8BB0EE409AF0EE609A9FED940B53ECD9
:1028B000102B51EC190B13F063F818D29FED910B0C
:1028C00053EC102B51EC190B12F0C4FF41EC1B0B15
:1028D0009FED8E0B53EC102B12F015FF41EC1A0BF1
:1028E00053EC192B12F0B6FF41EC180B17E09FEDDB
:1028F000850B53EC102B51EC190B12F0ABFF41EC94
:102900001B0B9FED820B53EC102B12F0A0FF41EC40
:102910001A0B53EC192B12F09DFF41EC180B9FED95
:10292000770B53EC102B51EC180B13F029F820D235
:102930009FED780B53EC102B51EC180B12F0E3FECB
:1029400041EC1C0B9FED750B53EC102B12F082FF2A
:1029500041EC1B0B9FED6F0B53EC102B12F0D3FED1
:1029600041EC1A0B53EC182B12F074FF41EC180BCE
:102970001FE09FED680B53EC102B51EC180B12F07D
:1029800063FF41EC1C0B9FED670B53EC102B12F017
:1029900061FF41EC1B0B9FED5F0B53EC102B12F012
:1029A000B2FE41EC1A0B53EC182B12F053FF41EC22
:1029B000180BB0EE480AF0EE680ABDEC0A8B10BDA9
:1029C00010B52DED068BB0EE408AF0EE608A012442
:1029D0009FED560B53EC102B51EC180B12F0E8FF47
:1029E0000AD89FED520B53EC102B51EC180B12F040
:1029F0002BFF41EC180BA41E204612F09DFF41EC6A
:102A0000190BB0EE480AF0EE680AFFF747FFB0EE88
:102A100040AAF0EE60AA53EC192B51EC1A0B12F0FD
:102A200019FF41EC100BBDEC068B10BD10B52DED60
:102A3000088BB0EE408AF0EE608A01249FED3D0BDA
:102A400053EC102B51EC180B12F05DFE41EC180BFF
:102A50009FED360B53EC102B51EC180B12F0A8FF26
:102A60000AD8A41E9FED310B53EC102B51EC180B20
:102A700012F0EAFE41EC180B204612F05DFF41EC2B
:102A80001A0BB0EE480AF0EE680AFFF799FFB0EEB5
:102A900040BAF0EE60BA53EC1A2B51EC1B0B12F05B
:102AA000D9FE41EC190B12F09BFF00EE100ABDECB1
:102AB000088B10BDB0EE401AB5EEC01AF1EE10FA58
:102AC0003CDD31EE600AB5EEC00AF1EE10FA37D205
:102AD000DFED021AB0EE610A32E0000000000000F3
:102AE0008180803B0000804358000020DB0F49407C
:102AF000DB0FC93FDB0FC9BFDF59375F00000000A4
:102B000000000000000000602FF0D93F00000060CE
:102B1000305FF43F000000000000F03F000000C004
:102B2000CCCCCCBF000000C0CCCCCC3FF1D4C8533F
:102B3000FB210940F1D4C853FB21F93FB0EE410A13
:102B40007047B0EE401AB5EEC01AF1EE10FA0BD293
:102B500031EE200AB5EEC00AF1EE10FA06DD5FEDA7
:102B6000211AB0EE610A01E0B0EE410A7047F0EEC2
:102B7000401AF4EEE01AF1EE10FA09DD31EEC10A66
:102B8000B4EEE00AF1EE10FA0BD2B0EE600A08E003
:102B900031EE810AB4EEE00AF1EE10FA01DDB0EE9A
:102BA000600A7047F0EE401AB1EE412A32EE202A58
:102BB000B4EEE12AF1EE10FA09D231EE202AB4EE99
:102BC000E12AF1EE10FA02DDB0EE600A01E0B0EEAB
:102BD000610A704710B52DED028BB0EE408AF0EE21
:102BE000608A9FED730B53EC102B51EC180B12F015
:102BF000DFFE0CD29FED700B53EC102B51EC180B39
:102C000012F022FE41EC100BBDEC028B10BD9FEDCB
:102C10006C0B53EC102B51EC180B12F0B1FE0AD2D6
:102C20009FED650B53EC102B51EC180B12F06BFD64
:102C300041EC100BE8E7B0EE480AF0EE680AE3E773
:102C4000F0EE400A9FED600AF4EEC00AF1EE10FAD1
:102C500004DD9FED5E0A30EEC00A70479FED5C0A0E
:102C6000F4EEC00AF1EE10FA04D29FED580A30EEED
:102C7000800AF2E7B0EE600AEFE7F0EE400AF5EE08
:102C8000C00AF1EE10FA02DDB0EE600A01E0B1EE2A
:102C9000600A90ED041AB4EEC10AF1EE10FA0CDDF0
:102CA000F5EEC00AF1EE10FA04D291ED040AB1EE8D
:102CB000400A704791ED040AFBE7F5EEC00AF1EE19
:102CC00010FA02DDB0EE600A01E0B1EE600A90EDAC
:102CD000031AB4EEC10AF1EE10FA0CDDF5EEC00AEB
:102CE000F1EE10FA04D291ED030AB1EE400AE0E7EA
:102CF00091ED030ADDE7F5EEC00AF1EE10FA02DD10
:102D0000B0EE600A01E0B1EE600A90ED021AB4EE96
:102D1000C10AF1EE10FA0CDDF5EEC00AF1EE10FA80
:102D200004D291ED020AB1EE400AC2E791ED020A27
:102D3000BFE7F5EEC00AF1EE10FA02DDB0EE600A70
:102D400001E0B1EE600A90ED011AB4EEC10AF1EEB5
:102D500010FA0CDDF5EEC00AF1EE10FA04D291ED96
:102D6000010AB1EE400AA4E791ED010AA1E7F5EEF0
:102D7000C00AF1EE10FA02DDB0EE600A01E0B1EE39
:102D8000600A90ED001AB4EEC10AF1EE10FA0CDD03
:102D9000F5EEC00AF1EE10FA04D291ED000AB1EEA0
:102DA000400A86E791ED000A83E71FEDB40A80E749
:102DB00000000000008066400000000000807640B7
:102DC00000000000008066C0000034430000B443EF
:102DD000000034C370B505460C462146F74802F0A2
:102DE00004FA2146F54806F05CFE70BD70B5044655
:102DF0000D46AA20F14908704870EF208870022023
:102E0000C8700846047145710026002005E0EB49B2
:102E1000095C3144CEB2411CC8B20628F7DBE74852
:102E200086710721FFF7D6FF70BD70B504460D46C9
:102E3000AA20E24908704870EE2088700220C8700D
:102E40000846047145710026002005E0DB49095C55
:102E50003144CEB2411CC8B20628F7DBD748867190
:102E60000721FFF7B7FF70BD2DE9F0432DED028B71
:102E700083B005460E4617469846B0EE408A0024B9
:102E8000AA222146641CCD4842542146641C425467
:102E900004222146641C425400222146641C4254F0
:102EA0002146641C45542146641C465401979DF8F4
:102EB00007202146641C42549DF806202046611CD0
:102EC000CCB2BE490A549DF805202046611CCCB204
:102ED000BA490A549DF804202046611CCCB2B74977
:102EE0000A54CDF804809DF807202046611CCCB21E
:102EF000B2490A549DF806202046611CCCB2AF4965
:102F00000A549DF805202046611CCCB2AB490A54F6
:102F10009DF804202046611CCCB2A8490A549FEDBC
:102F2000A80A28EE000ABDEEC00A10EE100A00B290
:102F300002909DF809202046611CCCB29F490A549A
:102F40009DF808202046611CCCB29C490A54201FE1
:102F5000C8704FF00009002006E09849095C494418
:102F600001F0FF09411CC8B2A042F6DB2046611CFB
:102F7000CCB2924901F8009021469048FFF72AFF11
:102F800003B0BDEC028BBDE8F08370B52DED0A8B6C
:102F900082B00546B0EE408AF0EE608AB0EE419A0B
:102FA000F0EE619AB0EE42AAF0EE62AAB0EE43BA39
:102FB000F0EE63BAB0EE44CA0024AA222146641C93
:102FC0007E4842542146641C425405F10F00C2B2AF
:102FD0002146641C7948425400222146641C425414
:102FE0009FED780A28EE000ABDEEC00A10EE100A26
:102FF00000B201909DF805202146641C6F484254A0
:103000009DF804202146641C42549FED6E0A28EE70
:10301000800ABDEEC00A10EE100A00B201909DF8C1
:1030200005202146641C654842549DF80420204632
:10303000611CCCB261490A549FED620A29EE000A74
:10304000BDEEC00A10EE100A00B201909DF80520F6
:103050002046611CCCB259490A549DF804202046F0
:10306000611CCCB255490A549FED560A29EE800ADC
:10307000BDEEC00A10EE100A00B201909DF80520C6
:103080002046611CCCB24D490A549DF804202046CC
:10309000611CCCB249490A549FED4A0A2AEE000A43
:1030A000BDEEC00A10EE100A00B201909DF8052096
:1030B0002046611CCCB241490A549DF804202046A8
:1030C000611CCCB23D490A549FED3E0A2AEE800AAB
:1030D000BDEEC00A10EE100A00B201909DF8052066
:1030E0002046611CCCB235490A549DF80420204684
:1030F000611CCCB231490A549FED320A2BEE000A12
:10310000BDEEC00A10EE100A00B201909DF8052035
:103110002046611CCCB229490A549DF8042020465F
:10312000611CCCB225490A549FED260A2BEE800A79
:10313000BDEEC00A10EE100A00B201909DF8052005
:103140002046611CCCB21D490A549DF8042020463B
:10315000611CCCB219490A549FED1A0A2CEE000AE0
:10316000BDEEC00A10EE100A00B201909DF80520D5
:103170002046611CCCB211490A549DF80420204617
:10318000611CCCB20D490A54201FC87000260020D3
:1031900005E00A49095C3144CEB2411CC8B2A042E4
:1031A000F7DB2046611CCCB204490E54214603488B
:1031B000FFF710FE02B0BDEC0A8B70BD7C2B002027
:1031C0000000C84200007A44F8B505460E460024C7
:1031D000AA222146641CFE4842542146641C4254E3
:1031E00005222146641C425400222146641C42549C
:1031F00000959DF801202146641C42549DF8002052
:103200002146641C425400969DF801202146641C0E
:1032100042549DF800202146601CC4B2EC48425440
:10322000201FEB49C8700027002005E0E849095C31
:103230003944CFB2411CC8B2A042F7DB2046611C22
:10324000CCB2E3490F542146E148FFF7C3FDF8BD76
:103250007FB50024AA222146641CDD484254214641
:10326000641C425406222146641C4254002221461A
:10327000641C42549DF801202146641C42549DF870
:1032800000202146641C42549DF805202146641C00
:1032900042549DF804202046611CCCB2CC490A540B
:1032A0009DF809202046611CCCB2C9490A549DF8FA
:1032B00008202046611CCCB2C5490A549DF80D2057
:1032C0002046611CCCB2C2490A549DF80C2021460C
:1032D000601CC4B2BE4842549DF821202046611CA7
:1032E000CCB2BB490A549DF820202046611CCCB2C8
:1032F000B7490A549DF825202046611CCCB2B44938
:103300000A549DF824202046611CCCB2B0490A54CE
:103310009DF829202046611CCCB2AD490A549DF885
:1033200028202046611CCCB2A9490A549DF82D20C2
:103330002046611CCCB2A6490A549DF82C20204698
:10334000611CCCB2A2490A54201FC870002500207D
:1033500005E09F49095C2944CDB2411CC8B2A04296
:10336000F7DB2046611CCCB299490D5421469848A0
:10337000FFF730FD7FBD7FB50024AA222146641CE3
:10338000934842542146641C425403222146641C43
:10339000425400222146641C42549DF801202146DB
:1033A000641C42549DF800202146641C42549DF840
:1033B00005202146641C42549DF804202046611CCF
:1033C000CCB283490A549DF809202046611CCCB236
:1033D0007F490A549DF808202046611CCCB27C49E4
:1033E0000A549DF80D202046611CCCB278490A543D
:1033F0009DF80C202046611CCCB275490A549DF8FA
:1034000021202046611CCCB271490A549DF820202D
:103410002146601CC4B26E4842549DF825202046C7
:10342000611CCCB26A490A549DF824202046611CD4
:10343000CCB267490A549DF829202046611CCCB2C1
:1034400063490A549DF828202046611CCCB260498B
:103450000A549DF82D202046611CCCB25C490A54C8
:103460009DF82C202046611CCCB259490A549DF885
:1034700031202046611CCCB255490A549DF83020B9
:103480002046611CCCB252490A549DF83520204692
:10349000611CCCB24E490A549DF834202046611C70
:1034A000CCB24B490A54201FC8700025002005E00B
:1034B0004749095C2944CDB2411CC8B2A042F7DBA0
:1034C0002046611CCCB242490D5421464048FFF7CA
:1034D00081FC7FBD73B50024AA222146641C3C48B0
:1034E00042542146641C425407222146641C425423
:1034F00000222146641C42549DF803202146641C8E
:1035000042549DF802202146641C42549DF801203B
:103510002146641C42549DF800202046611CCCB218
:103520002B490A549DF805202046611CCCB228493D
:103530000A549DF804202046611CCCB224490A5448
:10354000201FC8700025002005E02149095C29449E
:10355000CDB2411CC8B2A042F7DB2046611CCCB200
:103560001B490D5421461A48FFF734FC7CBD2DE958
:10357000F84F05460E4617469846DDE90AAB00248B
:10358000AA222146641C124842542146641C42541B
:1035900002222146641C425400222146641C4254EB
:1035A00000959DF801202146641C42549DF800209E
:1035B0002146641C425400969DF801202146641C5B
:1035C00042549DF800202146601CC4B2004801E02E
:1035D0007C2B0020425400979DF801202046611C5E
:1035E000CCB2FE490A549DF800202046611CCCB2A2
:1035F000FA490A54CDF800809DF801202046611C4C
:10360000CCB2F6490A549DF800202046611CCCB289
:10361000F2490A54CDF800A09DF801202046611C13
:10362000CCB2EE490A549DF800202046611CCCB271
:10363000EA490A54CDF800B09DF801202146601CEB
:10364000C4B2E64842549DF800202146601CC4B232
:10365000E24842540C9800909DF801202046611CDD
:10366000CCB2DE490A549DF800202046611CCCB241
:10367000DA490A540D9800909DF801202046611CFB
:10368000CCB2D6490A549DF800202046611CCCB229
:10369000D2490A540E9800909DF801202046611CE2
:1036A000CCB2CE490A549DF800202046611CCCB211
:1036B000CA490A54002000909DF801202046611C50
:1036C000CCB2C6490A549DF800202046611CCCB2F9
:1036D000C2490A54201FC8704FF00009002006E0BC
:1036E000BE49095C494401F0FF09411CC8B2A0422F
:1036F000F6DB2046611CCCB2B84901F800902146A7
:10370000B648FFF767FBBDE8F88F38B50024AA225A
:103710002146641CB14842542146641C4254F122A3
:103720002146641C425400222146641C4254AC4889
:1037300090ED010ABDEEC00A10EE100A00B2009032
:103740009DF801202146641CA44842549DF80020A5
:103750002146641C4254A34890ED000ABDEEC00A05
:1037600010EE100A00B200909DF801202146641C62
:103770009A4842549DF800202046611CCCB29749DB
:103780000A54974890ED030ABDEEC00A10EE100AE5
:1037900000B200909DF801202046611CCCB28F49F8
:1037A0000A549DF800202046611CCCB28B490A5473
:1037B0008D4890ED040ABDEEC00A10EE100A00B26A
:1037C00000909DF801202046611CCCB283490A5428
:1037D0009DF800202046611CCCB280490A548248E2
:1037E00090ED100ABDEEC00A10EE100A00B2009073
:1037F0009DF801202046611CCCB278490A549DF8FE
:1038000000202046611CCCB274490A5477480088D5
:1038100000EB8000400000B200909DF8012020469F
:10382000611CCCB26D490A549DF800202046611CF1
:10383000CCB26A490A546E4890ED020ADFED6D0A77
:1038400020EE200ABDEEC00A10EE100A00B2009071
:103850009DF801202046611CCCB260490A549DF8B5
:1038600000202046611CCCB25C490A54201FC8705D
:103870000025002005E05949095C2944CDB2411CCE
:10388000C8B2A042F7DB2046611CCCB253490D54AC
:1038900021465248FFF79EFA38BD30B52DED048B16
:1038A00081B0B0EE408AF0EE608AB0EE419A00241A
:1038B000AA222146641C494842542146641C4254B1
:1038C0000B222146641C425400222146641C4254AF
:1038D0009FED490A28EE000ABDEEC00A10EE100A5C
:1038E00000B200909DF801202146641C3B484254E0
:1038F0009DF800202146641C42549FED3F0A28EEAB
:10390000800ABDEEC00A10EE100A00B200909DF8C9
:1039100001202146641C314842549DF80020204675
:10392000611CCCB22D490A549FED330A29EE000ADE
:10393000BDEEC00A10EE100A00B200909DF8012002
:103940002046611CCCB225490A549DF8002020462F
:10395000611CCCB221490A54201FC87000250020E8
:1039600005E01E49095C2944CDB2411CC8B2A04201
:10397000F7DB2046611CCCB218490D54214617488C
:10398000FFF728FA01B0BDEC048B30BD2DE9F04102
:103990002DED048B82B0B0EE408AF0EE608AB0EE7E
:1039A000419A05460E46174600240095AA22214654
:1039B000641C0A4842542146641C42540122214698
:1039C000641C425400222146641C42549FED0B0AA1
:1039D00028EE000ABDEEC00A12E000007C2B002099
:1039E000EC3400206C05002004350020D43A00207F
:1039F000E42A002000401C46CDCCCC3D0000C8424B
:103A000010EE100A00B201909DF805202146641CBA
:103A1000FD4842549DF804202146641C42541FED89
:103A2000090A28EE800ABDEEC00A10EE100A00B2A4
:103A300001909DF805202146641CF34842549DF8EE
:103A400004202046611CCCB2EF490A541FED150A30
:103A500029EE000ABDEEC00A10EE100A00B2019075
:103A60009DF805202046611CCCB2E7490A549DF818
:103A700004202046611CCCB2E3490A549DF803207F
:103A80002046611CCCB2E0490A549DF80220204631
:103A9000611CCCB2DC490A549DF801202046611C0F
:103AA000CCB2D9490A549DF800202146601CC4B20A
:103AB000D54842542046611CCCB2D3490E5420460E
:103AC000611CCCB2D0490F54201FC8704FF00008C1
:103AD000002006E0CC49095C414401F0FF08411C8C
:103AE000C8B2A042F6DB2046611CCCB2C64901F840
:103AF00000802146C448FFF76DF902B0BDEC048B8D
:103B0000BDE8F0817FB505460024AA222146641C49
:103B1000BD4842542146641C425400222146641C84
:103B200042542146641C42542146641C45549DF86D
:103B300005202146641C42549DF804202146641C43
:103B400042549DF809202046611CCCB2AE490A546B
:103B50009DF808202046611CCCB2AB490A549DF860
:103B60000D202046611CCCB2A7490A549DF80C20B8
:103B70002046611CCCB2A4490A549DF8212020465D
:103B8000611CCCB2A0490A549DF820202046611C3B
:103B9000CCB29D490A54201FC8700026002005E0C1
:103BA0009949095C3144CEB2411CC8B2A042F7DB4E
:103BB0002046611CCCB294490E5421469248FFF72E
:103BC00009F97FBD10B586B0904800789049097812
:103BD00090FBF1F201FB12018D480078401E8142FA
:103BE00002D101208B494871884800788A490978B8
:103BF00090FBF1F201FB120187480078401E8142E0
:103C000002D101208349887180480078834909786E
:103C100090FBF1F201FB120180480078801E814286
:103C200002D101207B494874784800787C490978A2
:103C300090FBF1F201FB120179480078401E8142AD
:103C400002D10120734908717048007875490978DC
:103C500090FBF1F201FB120172480078401E814294
:103C600002D101206B494873684800786E49097891
:103C700090FBF1F201FB12016B480078801E81423B
:103C800002D101206349C873604800786749097808
:103C900090FBF1F201FB120164480078801E814222
:103CA00002D101205B4908745848007860490978BE
:103CB00090FBF1F201FB12015D480078C01E8142C9
:103CC00002D1012053498874504800785949097835
:103CD00090FBF1F201FB120156480078C01E8142B0
:103CE00004D14C48C07C401C4A49C87447480078FD
:103CF000401CC0B245490870C82801DD002008708A
:103D00004448007838B1434A51781078FFF78DF86D
:103D10000020404908703F48807848B100203D4964
:103D200088704548017845480078FFF75FF850E211
:103D30003848C07860B100203649C8704FF4C87365
:103D400064224FF4967100900420FFF7DBFE40E2FE
:103D500030480079E0B100202E490871384991EDD2
:103D6000100A5FEDDB0A20EE200ABDEEC00A10EE5D
:103D7000100A34490A780021334B93ED001A334B73
:103D8000D3ED000A324B93ED000AFFF7FFFD20E26E
:103D90002048807C60B100201E4988742D4890ED39
:103DA000001ADFED2D0A9FED2C0AFFF776FD10E2D9
:103DB0001848407C28B1002016494874FFF7A5FC3C
:103DC00007E214484079F0B10020124948712348B5
:103DD00090ED0A0ABDEEC00A10EE100A00B21F49AB
:103DE00091ED090ABDEEC00A10EE101A0AB21B4985
:103DF00091ED080ABDEEC00A10EE101A09B2184B78
:103E000093ED090A2EE062E07C2B00206004002084
:103E100061040020682B002062040020630400205D
:103E2000640400206504002066040020670400206C
:103E300068040020690400205D0400205C04002068
:103E400004350020B00400202400002020000020C1
:103E50001C0000206C05002000000000DC05002094
:103E600094350020BDEEC00A10EE103A1BB2CDE929
:103E70000131CDE90320F84890ED080ABDEEC00AF3
:103E800010EE100A00B2F44C009094ED070ABDEE5B
:103E9000C00A10EE104A23B2EF4C94ED060ABDEEB4
:103EA000C00A10EE104A22B2EB4C94ED050ABDEEAA
:103EB000C00A10EE104A21B2E74C94ED040ABDEEA0
:103EC000C00A10EE104A20B2FFF751FB81E1E3482F
:103ED0008079A0B10020E1498871E14890ED010AA4
:103EE000F2EE040A80EE201ABDEEC10A10EE104A6E
:103EF000DC48008881B22046FFF7ECFA69E1D74838
:103F0000407BA8B30020D549487340F2DC52D64824
:103F1000C08900F2DC5080B2D349898901F2DC51BA
:103F200089B2CDE90302D04805920291408900F29E
:103F3000DC5080B2CC49098901F2DC5189B2CA4C0B
:103F4000CDE90010648804F2DC54A3B2C64C248886
:103F500004F2DC54A2B2C44CE48804F2DC54A1B2F2
:103F6000C14CA48804F2DC54A0B2FFF704FA30E19B
:103F7000FFE7BA48C07B48B30020B849C873009037
:103F800001900290B94C039094ED030ABCEEC00A74
:103F900010EE104AA3B2B54C94ED020ABCEEC00A72
:103FA00010EE104AA2B2B14C94ED010ABCEEC00A68
:103FB00010EE104AA1B2AD4C94ED000ABCEEC00A5E
:103FC00010EE104AA0B2FFF743F902E1A348007CCB
:103FD00040B10020A14908744FF4E4717B20FFF741
:103FE000F3F8F6E09D48C07958B300209B49C871AA
:103FF0009F48D0ED1E4AB0EE644AD0ED1F4AF0EE65
:10400000643AD0ED1D4AB0EE643AD0ED1A4AF0EEB3
:10401000642AD0ED1B4AB0EE642AD0ED194AF0EEC6
:10402000641AD0ED164AB0EE641AD0ED174AF0EEDD
:10403000640AD0ED154AB0EE640A0120FEF7A5FF30
:10404000C7E08648007A58B300208449087289483E
:10405000D0ED1E4AB0EE644AD0ED1F4AF0EE643A4D
:10406000D0ED1D4AB0EE643AD0ED1A4AF0EE642A63
:10407000D0ED1B4AB0EE642AD0ED194AF0EE641A76
:10408000D0ED164AB0EE641AD0ED174AF0EE640A8D
:10409000D0ED154AB0EE640A0220FEF776FF98E0F4
:1040A0006E48407A58B300206C4948727248D0ED8F
:1040B000214AB0EE644AD0ED224AF0EE643AD0EDE7
:1040C000204AB0EE643AD0ED1D4AF0EE642AD0EDFD
:1040D0001E4AB0EE642AD0ED1C4AF0EE641AD0ED10
:1040E000194AB0EE641AD0ED1A4AF0EE640AD0ED27
:1040F000184AB0EE640A0320FEF747FF69E057480C
:10410000807AF8B10020554988725B48D0ED251AB5
:10411000B0EE611AD0ED261AF0EE610AD0ED241A45
:10412000B0EE610A1FEDB44A5FEDB53A1FEDB63A45
:104130005FEDB72A1FEDB82A5FEDB91A0420FEF72C
:1041400024FF46E04548C07AC0B100204349C87208
:104150001FEDBF4A5FEDC03A1FEDC13A5FEDC22AC5
:104160001FEDC32A5FEDC41A1FEDC51A5FEDC60A25
:104170001FEDC70A0520FEF708FF2AE03748007B3D
:10418000C0B10020354908731FEDCD4A5FEDCE3A2E
:104190001FEDCF3A5FEDD02A1FEDD12A5FEDD21A85
:1041A0001FEDD31A5FEDD40A1FEDD50A0620FEF7E6
:1041B000ECFE0EE02948C07C02280AD100202749E5
:1041C000C8741FEDDB0A00231A4619461846FEF78D
:1041D0004BFE01F01CF806B010BD70B52DED048B40
:1041E00004460E460025002004E0215C2944CDB29F
:1041F000411CC8B2711E8142F7DCA01910F8010CF5
:10420000A84202D0BDEC048B70BD2078AA2802D150
:104210006078AF2800D0F5E7A078012837D1207961
:10422000012802D10C49087031E02079022803D11D
:104230000120094948702AE02079032804D101208F
:1042400005490870487022E02079042818D101201F
:104250000A4908701BE0000094350020682B0020FC
:10426000EC340020D43A0020F02B0020B42A0020A7
:10427000E0280020A4290020AC0700200906002027
:104280002079212802DB2079262800DD00BFA078D4
:10429000022814D12079012806D1FE49C87108727C
:1042A00048728872C87208732079A02802D1012050
:1042B000F849C8702079A12801D1FCF783FAA078C9
:1042C000032836D1F4480078012802D0022000F0FB
:1042D00032FF2079617941EA0020F0498880A07995
:1042E000E17941EA0020ED49C880207A617A41EA0B
:1042F0000020EA490880A07AE17A41EA0020E749F3
:104300004880207B617B41EA0020E4490881A07B52
:10431000E17B41EA0020E1494881207C617C41EA5F
:104320000020DE498881A07CE17C41EA0020DB4955
:10433000C881A07810287DD12179090209B262795B
:1043400041EA020011F0F8FA41EC190B9FEDD40B91
:1043500053EC102B11F07EFA41EC180B11F040FBDE
:10436000D1494865A179090209B2E27941EA02001E
:1043700011F0E2FA41EC190B9FEDC90B53EC102B35
:1043800011F068FA41EC180B11F02AFBC649C86518
:10439000217A090209B2627A41EA020011F0CCFAEC
:1043A00041EC190B9FEDBE0B53EC102B11F052FAA0
:1043B00041EC180B11F014FBBB498865A17A090286
:1043C00009B2E27A41EA020011F0B6FA41EC190BA7
:1043D0009FEDB30B53EC102B11F03CFA41EC180B92
:1043E00011F0FEFAB0494866217B090209B2627BEE
:1043F00041EA020011F0A0FA41EC190B9FEDA80B65
:1044000053EC102B11F026FA41EC180B11F0E8FADE
:104410000146A548C166A17B090209B2E27B41EAD7
:10442000020011F089FA41EC190B9FED9D0B53EC42
:10443000102B00E05CE011F00DFA41EC180B11F0CC
:10444000CFFA014698488166217C090209B2627C54
:1044500041EA020011F070FA41EC190B9FED900B4C
:1044600053EC102B11F0F6F941EC180B11F0B8FADF
:104470008D494867A17C090209B2E27C41EA020049
:1044800011F05AFA41EC190B9FED850B53EC102BF0
:1044900011F0E0F941EC180B11F0A2FA0146824844
:1044A000C167217D090209B2627D41EA020011F073
:1044B00043FA41EC190B9FED7A0B53EC102B11F0E2
:1044C000C9F941EC180B11F08BFA01467648816767
:1044D0007048807838B901206E498870A078734997
:1044E000087073480570FCF767F90120714908806E
:1044F000A07811287DD12179090209B2627941EAB7
:10450000020011F019FA41EC190B9FED650B53EC09
:10451000102B11F09FF941EC180B11F061FA66496C
:104520004865A179090209B2E27941EA020011F075
:1045300003FA41EC190B9FED5A0B53EC102B11F0C1
:1045400089F941EC180B11F04BFA5B49C865217AE7
:10455000090209B2627A41EA020011F0EDF941EC78
:10456000190B9FED4F0B53EC102B11F073F941EC2D
:10457000180B11F035FA50498865A17A090209B281
:10458000E27A41EA020011F0D7F941EC190B9FEDF4
:10459000440B53EC102B11F05DF941EC180B11F0AA
:1045A0001FFA45494866217B090209B2627B41EA4C
:1045B000020011F0C1F941EC190B9FED390B53ECDE
:1045C000102B11F047F941EC180B11F009FA0146D4
:1045D0003948C166A17B090209B2E27B41EA0200C7
:1045E00011F0AAF941EC190B9FED2D0B53EC102B98
:1045F00000E071E011F02EF941EC180B11F0F0F928
:1046000001462D488166217C090209B2627C41EA9B
:10461000020011F091F941EC190B9FED210B53ECC5
:10462000102B11F017F941EC180B11F0D9F92249B0
:104630004867A17C090209B2E27C41EA020011F05C
:104640007BF941EC190B9FED160B53EC102B11F07D
:1046500001F941EC180B11F0C3F901461648C16786
:10466000217D090209B2627D41EA020011F064F97C
:1046700041EC190B9FED0A0B53EC102B11F0EAF8EB
:1046800041EC180B11F0ACF901460B488167014869
:10469000807813E0682B002079040020AE2B0020E6
:1046A000FCA9F1D24D62503FE02800205C040020BC
:1046B0005D0400205E040020A429002038B90120F8
:1046C000E5498870A078E5490870E5480570FCF771
:1046D00073F80120E3490880A07812287ED121795F
:1046E000090209B2627941EA020011F025F941ECB0
:1046F000190B1FED150B53EC102B11F0ABF841EC1F
:10470000180B11F06DF9D8490866A179090209B2B0
:10471000E27941EA020011F00FF941EC190B1FEDAB
:10472000200B53EC102B11F095F841EC180B11F005
:1047300057F9CD498866217A090209B2627A41EABD
:10474000020011F0F9F841EC190B1FED2B0B53ECA3
:10475000102B11F07FF841EC180B11F041F9C24910
:104760004866A17A090209B2E27A41EA020011F030
:10477000E3F841EC190B1FED360B53EC102B11F045
:1047800069F841EC180B11F02BF9B7490867217B48
:10479000090209B2627B41EA020011F0CDF841EC56
:1047A000190B1FED410B53EC102B11F053F841EC9A
:1047B000180B11F015F9AC498867A17B090209B201
:1047C000E27B41EA020011F0B7F841EC190B1FED52
:1047D0004C0B53EC102B11F03DF800E05AE041EC8B
:1047E000180B11F0FDF8A0494867217C090209B2B5
:1047F000627C41EA020011F09FF841EC190B1FEDB9
:10480000580B53EC102B11F025F841EC180B11F05C
:10481000E7F89549C1F88000A17C090209B2E27C61
:1048200041EA020011F088F841EC190B1FED640B0E
:1048300053EC102B11F00EF841EC180B11F0D0F8DE
:104840008949C1F88800217D090209B2627D41EAE7
:10485000020011F071F841EC190B1FED6F0B53ECD6
:10486000102B10F0F7FF41EC180B11F0B9F87E494E
:10487000C1F884007848807838B90120764988707A
:10488000A0787649087076480570FBF795FF0120FF
:1048900074490880A078132854D12179090209B2FB
:1048A000627941EA020011F047F841EC190B1FED63
:1048B000840B53EC102B10F0CDFF41EC180B11F0D2
:1048C0008FF86949C1F89000A179090209B2E2792B
:1048D00041EA020011F030F841EC190B1FED900B8A
:1048E00053EC102B10F0B6FF41EC180B11F078F8D8
:1048F0005D49C1F89800217A090209B2627A41EA59
:10490000020011F019F841EC190B1FED9B0B53EC51
:10491000102B10F09FFF41EC180B11F061F8524979
:10492000C1F894004C48807838B901204A49887011
:10493000A0784A4908704A480570FBF73DFF0120FE
:1049400048490880A07814280AD14348807838B9AB
:10495000012041498870A07840490870404805709E
:10496000A07815280AD13C48807838B901203A4906
:104970008870A078394908703948057000BF41E453
:1049800010B504463948007838B9AA2C05D1012061
:1049900036490870364804705DE0344800780128D4
:1049A00007D1AF2C05D1022030490870304844703F
:1049B00051E02E480078022807D1F12C05DA0320B7
:1049C0002A4908702A48847045E02848007803285E
:1049D0000CD1322C0ADA0420244908702448C4700F
:1049E0002448047000202449087034E01F480078EF
:1049F000042819D11F480078002815DD1D480078CB
:104A0000401E1C4908701C4800781B490978491C45
:104A1000194A1170001D16490C5416480078D0B977
:104A200005201249087016E01048007805280FD1BB
:104A300000200E49087010480078001D0C490C54E5
:104A40000D480078401DC1B20948FFF7C6FB02E0DF
:104A500000200649087010BD682B00205C0400206F
:104A60005D0400205E040020AC0700206C040020E0
:104A7000BE2B00206A0400206B04002002460020A8
:104A800007E0FE4B1B5632F8133021F81030431C60
:104A9000D8B20828F5DB7047F94890ED021ADFED2F
:104AA000F91AB4EEE11AF1EE10FA55D20120F649E6
:104AB0000870F34890ED031ADFEDF21AB4EEE11A34
:104AC000F1EE10FA1AD2F148B0F90000401CC8B358
:104AD000EF480078B0B3ED48B0F9000001EE100ADD
:104AE000B8EEC11ADFEDEB1A01EE801ABDEEC11A65
:104AF00011EE100A00B2E549088032E0E04890ED7E
:104B0000031ADFEDE51AB4EEE11AF1EE10FA1ADD40
:104B1000DE48B0F90000401CA0B1DD48007888B93B
:104B2000DA48B0F9000001EE100AB8EEC11ADFED64
:104B3000D91A01EE801ABDEEC11A11EE100A00B2A8
:104B4000D24908800DE0D148B0F90000401C40B9BE
:104B50000020CE49088004E00020CC490880CA49E2
:104B60000870CA48B0F90000B0F5967F12DD4FF02A
:104B7000FF30C6490880C648007840B90120C449C2
:104B800008700220C5494870C549087002E000203D
:104B9000BF490870BA4890ED021ADFEDBA1AB4EEB8
:104BA000E11AF1EE10FA37D290ED031ADFEDB51AE3
:104BB000B4EEE11AF1EE10FA2ED290ED001ADFED0C
:104BC000B61AB4EEE11AF1EE10FA25DD90ED011AF5
:104BD000DFEDB11AB4EEE11AF1EE10FA1CDDB148C6
:104BE000B0F90000B0F5FA6F12DAAE48B0F9000083
:104BF00001EE100AB8EEC11ADFEDA61A01EE801A16
:104C0000BDEEC11A11EE100A00B2A649088006E0F6
:104C10000120A549087002E00020A24908809C48B4
:104C2000007888B39848007801282ED1F5EEC00AA4
:104C3000F1EE10FA02DDB0EE601A01E0B1EE601A9A
:104C4000DFED9A1AB4EEE11AF1EE10FA1DD298488F
:104C5000B0F90000B0F5FA6F12DA9548B0F900002B
:104C600001EE100AB8EEC11ADFED8A1A01EE801AC1
:104C7000BDEEC11A11EE100A00B28D49088007E09E
:104C800000208349087003E0FFE70020884908807E
:104C900070473FB5B0EE402A0546864800780128A7
:104CA00004D185492846FFF7E9FE07E081480078EE
:104CB000022803D180498148FFF7E0FE002423E267
:104CC0007D4830F8140040F6C411884205DC7A486B
:104CD00030F81400B0F5FA7F07DA0120784908555A
:104CE0000020784921F8140012E0764830F81400CA
:104CF000401C744921F81400084630F81400C828F4
:104D000006DD4FF4FA6021F8140000206C490855C4
:104D100068480078012803D06648007802287CD1D2
:104D20006748005D002879D1634830F8140000B26C
:104D30002DF81400644830F91400644931F9141056
:104D400088426CDD6248005D002879D13DF914008D
:104D50005E4931F91410401A00EE100AB8EEC01A7C
:104D6000594830F91400594931F91410401A00EE2D
:104D7000100AB8EEC00AC1EE000A9FED461A9FED78
:104D8000550A10EE810ABDEEC00A10EE100A00B2FC
:104D900010F5FA7F01DA50484EE03DF914004B4916
:104DA00031F91410401A00EE100AB8EEC01A464845
:104DB00030F91400454931F91410401A00EE100A78
:104DC000B8EEC00AC1EE000A9FED321A9FED410A0B
:104DD00010EE810ABDEEC00A10EE100A00B2B0F566
:104DE000FA7F02DD4FF4FA7026E03DF914003749EE
:104DF00031F91410401A00EE100AB8EEC01A324809
:104E000030F91400314931F91410401A00EE100A3B
:104E1000B8EEC00AC1EE000A03E0C2E0BDE0B9E0AE
:104E20000EE09FED1C1A9FED2B0A10EE810ABDEEDD
:104E3000C00A10EE100A00B2284921F81400ACE0B4
:104E40003DF91400214931F91410401A00EE100AFE
:104E5000B8EEC01A1C4830F914001C4931F914107E
:104E6000401A00EE100AB8EEC00AC1EE000A9FED2B
:104E7000091A9FED180A10EE810A31E07004002033
:104E8000202C00200000C8C3B1040020B204002080
:104E9000B004002000007A440000C843943500208C
:104EA0004C000020B40400200906002000009643B6
:104EB000B604002079040020902C0020AE2B0020A6
:104EC0007A040020802C0020840400209404002018
:104ED000A40400200000FA430CFEFFFFF02B00208A
:104EE000BDEEC00A10EE100A00B210F5FA7F01DA2A
:104EF000944849E03DF91400934931F91410401ADF
:104F000000EE100AB8EEC01A904830F914008E492D
:104F100031F91410401A00EE100AB8EEC00AC1EEC2
:104F2000000A1FED241A1FED150A10EE810ABDEECE
:104F3000C00A10EE100A00B2B0F5FA7F02DD4FF49D
:104F4000FA7021E03DF914007F4931F91410401A3C
:104F500000EE100AB8EEC01A7C4830F914007A4905
:104F600031F91410401A00EE100AB8EEC00AC1EE72
:104F7000000A1FED381A1FED290A10EE810ABDEE56
:104F8000C00A10EE100A00B2404200B2704921F887
:104F9000140002E000206F49087000206E4908707C
:104FA00002E001206C4908709FED6C0A22EE000AB5
:104FB0006B4880ED000A3DF9140000EE100AB8EECF
:104FC000C00A684800EB8400D0ED000A30EE600AA9
:104FD000B5EEC00AF1EE10FA0DDD3DF9140000EE59
:104FE000100AB8EEC00A5F4800EB8400D0ED000A5A
:104FF00030EE600A0EE03DF9140000EE100AB8EE43
:10500000C00A584800EB8400D0ED000A30EE600A78
:10501000B1EE400ADFED540AB4EEE00AF1EE10FA08
:105020001DD24B4830F9140000EE100AB8EEC00A49
:105030004C4800EB8400D0ED000A70EE600A49484D
:1050400000EB840090ED000A454890ED001A01EE57
:10505000200A444800EB840080ED000A20E03C4830
:1050600030F9140000EE100AB8EEC00A3D4800EB1B
:105070008400D0ED000A70EE600A3A4800EB84002C
:1050800090ED000A364890ED001AF6EE001A21EE77
:10509000211A01EE200A334800EB840080ED000A5B
:1050A0003248007838B92B48007820B99FED300A93
:1050B0002C4880ED020A2B4800EB840090ED000A9A
:1050C0002C4800EB8400D0ED000A30EE600A2A483C
:1050D00000EB840080ED000A224800EB840090ED94
:1050E000000A244800EB840080ED000A184830F9DB
:1050F000140000EE100AB8EEC00A204800EB84004D
:1051000080ED000A601CC4B2082CFFF6D9AD1C4823
:10511000D0ED000AB0EE420AFFF7BEFC1948008845
:10512000401C80B217490880C82803DD0020088091
:105130000E4908703FBD0D4908700021114A1180C9
:10514000704700000CFEFFFF940400208404002040
:10515000F02B0020B00400207804002034337B4280
:10516000AC040020202C00200000C842790400205C
:105170000000FAC3402C0020602C0020002C0020EE
:105180006C050020820400200DF0E0BC7047002078
:1051900070470020704700207047002070470020B3
:1051A00070470020704700207047002070470020A3
:1051B0007047002070470020704700207047002093
:1051C0007047002070470DF0E8BC70470020704722
:1051D000002070470DF02CBB7047000010B50CF09C
:1051E0002BFD01200CF033FD10BD70B502460020F0
:1051F0000AE0145C864B1D781B785B1C844E337070
:10520000844B5C55431CD8B28842F2DB70BD10B5AC
:105210007F4800788049097888425BDD7C480078C7
:105220007D490978401A3F281BDB00207B49087024
:105230003F207B49087000200BE077490A78097805
:10524000491C754B197073498A5C754B411C5A5443
:10525000C8B23F28F1DB4022714900200DF083FDE8
:105260009FE06E480078401C6C4908700846007842
:105270006C4909788842F3D1002068490870644875
:10528000007865490978401A65490870002015E0E2
:105290005F490978604A1278891A814208DD5E49BF
:1052A000097801445B4A525C5D4B411C5A5403E04F
:1052B00000225B4B411C5A54411CC8B23F28E7DB1B
:1052C00053480078544908704022554900200DF099
:1052D0004AFD66E04E4800784F490978884260DA16
:1052E0004D480078C0F580704949097808443F2846
:1052F0001BDB0020494908703F2049490870002005
:105300000BE045490A780978491C434B197041491B
:105310008A5C434B411C5A54C8B23F28F1DB4022FF
:105320003F4900200DF01FFD3BE03C480078401C49
:105330003A490870084600783A490978884230D1DD
:1053400000203649087034480078404230490978D6
:10535000084433490870002018E02F490978C1F546
:1053600080712B4A12781144814209DD2A4909785B
:105370000144C9B2274A525C294B411C5A5403E0EC
:105380000022274B411C5A54411CC8B23F28E4DB81
:105390001F480078204908704022214900200DF064
:1053A000E2FC10BD10B50446012C02D0032C11D133
:1053B0000EE059B923B1012B05D0022B04D100E036
:1053C00000BF402010BD00BF00BF00BF00BF01E014
:1053D0000120F7E700BF0020F4E72DE9F04706467B
:1053E000884614469946089F022E02D0032E0CD1FF
:1053F0000AE0012504E0605DFFF7C2FA681CC5B24F
:105400002078A842F7DA00E000BF00BFBDE8F087CF
:10541000C3040020C02F0020C2040020C4040020C8
:10542000C0300020C104002010B5054810F064F918
:10543000022101EB4000C0B210BD024870470000DD
:10544000043100201D3100209FEDFA2A20EE822A2F
:1054500062EE012AB7EE003A83EE222AF7EE002A26
:1054600032EE222AB7EE003AC3EE022A90ED032A6A
:1054700031EEC22A90ED003A32EE433A90ED002A26
:1054800002EE832A80ED002A90ED032A31EEC22A33
:1054900022EE022A80ED012A90ED012AD0ED002AA9
:1054A00090ED003A02EE832AB5EEC02AF1EE10FA32
:1054B00002D1DFEDE12A0DE090ED002A22EE023A62
:1054C00090ED012AD0ED002AD0ED003A02EEA32A99
:1054D000C3EE022AF5EEC02AF1EE10FA02D2DFED99
:1054E000D62A45E090ED012AD0ED002A90ED003A51
:1054F00002EE832AB5EEC02AF1EE10FA02D1DFEDFA
:10550000CE2A0DE090ED002A22EE023A90ED012A1B
:10551000D0ED002AD0ED003A02EEA32AC3EE022A13
:10552000B7EE002AF4EEC22AF1EE10FA02DDF7EE31
:10553000002A1DE090ED012AD0ED002A90ED003AFE
:1055400002EE832AB5EEC02AF1EE10FA02D1DFEDA9
:10555000BA2A0DE090ED002A22EE023A90ED012ADF
:10556000D0ED002AD0ED003A02EEA32AC3EE022AC3
:10557000C0ED022A90ED022A22EE002ADFEDAD2ACC
:1055800022EE222A22EE012AF7EE002A82EE823A49
:10559000B7EE002A33EE022AB7EE003AC3EE022A33
:1055A00090ED032A31EEC23A90ED032A02EE832AEF
:1055B00080ED032A704730B50C4615886D1CADB2DE
:1055C0001580A54201DB00251580158800EB8505B7
:1055D000D5ED000A158800EB850585ED000A70EE13
:1055E000601A01EE104AB8EE412A81EE821AD3ED1C
:1055F000001A31EE211A83ED001A93ED001AD3ED53
:10560000001A70EE611A9FED8D2A02EE211A83EDC9
:10561000001A30BD2DE9F04704460E469C4600278F
:10562000B94633461088401C80B21080984201DB96
:10563000002010801188108844F820C0581E88422D
:1056400022DD19E054F8210000EE900AB8EEE00ADD
:10565000481C54F8200044F82100FDEEC00A10EE6A
:10566000900A01F1010A44F82A000127481C81B27E
:10567000581E884200D106E054F821A0481C54F876
:1056800020008245DEDC00BF002923DD1AE054F84B
:10569000210000EE900AF8EEE00AB0EE600A481E23
:1056A00054F8200044F82100FDEEC00A10EE900AE4
:1056B000A1F1010A44F82A004FF0FF37481E81B2D9
:1056C00001B906E054F821A0481E54F82000824594
:1056D000DDDB00BF108820B9012F02D1581E1080D9
:1056E0000CE0B2F800A0581E824504D1781C10B915
:1056F0000020108002E01088C01B108000EE903A5D
:10570000F8EE600AB5EE001A60EE810AFCEEE00ADF
:1057100010EE900A1FFA80F8002506E008EB05005D
:1057200054F820008144681C85B203EBD37AB5EBB2
:105730006A0FF3DB9A4603EBDA70401099FBF0F046
:10574000BDE8F08770B504460D461646D4ED020A52
:1057500060EEA00A94ED011AD4ED011A41EE210A7F
:10576000B0EE600AFDF76EF8354880ED000AD4ED22
:10577000020A60EEA00A94ED001AD4ED001A41EE80
:10578000210AB0EE600AFDF75DF82E4880ED000AB0
:1057900094ED020AB5EEC00AF1EE10FA02D24FF013
:1057A000FF3000E001202849087095ED000A2448E8
:1057B000D0ED000A60EE200A94ED001A084690F938
:1057C000000000EE100AB8EEC00A21EE000A95EDC6
:1057D000021A40EE410AC6ED000A084690F90000A0
:1057E00000EE100AB8EEC00A1648D0ED000A20EE0E
:1057F000200AD5ED010A20EE200AD4ED010A95ED2C
:10580000021A00EEC10A86ED010A94ED000AD5EDF8
:10581000000A20EE200AD4ED010A95ED011A00EEEF
:10582000810AD4ED020A95ED021A00EE810A86ED96
:10583000020A70BDC3F5C84000000000ACC52737A0
:10584000CC040020D0040020C8040020F0EE400A60
:1058500040B9FE4991ED050AFD4981ED000A00219C
:10586000FC4A1170FC49097801290FD1FB490978DC
:1058700061B9FB498978012908D1FA49097829B920
:10588000F449097811B90121F24A1170F1490978F6
:10589000012902D002291FD107E0F3490978012923
:1058A00002D10221EB4A117017E0E84991ED050A97
:1058B000E74991ED001A30EE410A9FEDEC1AB4EE83
:1058C000C10AF1EE10FA06DDE2490978022902D197
:1058D0000321E04A117000BF00BF00BFDD49097815
:1058E000022905D19FEDE20AE24981ED000A0CE0B0
:1058F000D8490978032908D1DE4991ED000A9FEDC6
:10590000DC1A01EE600A81ED000ADA4991ED000A25
:10591000B5EEC00AF1EE10FA02D29FEDD70A0FE001
:10592000D44991ED000A9FEDD51AB4EEC10AF1EE0B
:1059300010FA02DD9FEDD10A02E0CE4991ED000A96
:10594000CC4981ED000AC6498978C64A1170C94917
:1059500091ED000A70479FEDCA0ACA4880ED000A1F
:10596000C94890ED180ADFEDC90A20EE200AC548A3
:1059700080ED010A9FEDC00A80ED020A9FEDBE0A8C
:1059800080ED030A9FEDBC0A80ED040A9FEDBA0A80
:1059900080ED050A9FEDBE0A80ED060ABA4890ED3B
:1059A000180AF7EE080A20EE200ABA4880ED000A2D
:1059B000B54890ED1A0ADFEDB00A20EE200AB5488E
:1059C00080ED010A9FEDAC0A80ED020AAE4890ED31
:1059D000190ADFEDB10A20EE200AAE4880ED030A75
:1059E000B3EE040A80ED040A9FEDAC0A80ED050ACF
:1059F000B6EE000A80ED060AA34890ED1C0AF7EE09
:105A0000080A20EE200AA64880ED000A9E4890ED84
:105A10001E0ADFED990A20EE200AA14880ED010A56
:105A2000994890ED1D0ADFED9A0A20EE200A9C4865
:105A300080ED020A9FED920A80ED030AB3EE040A9C
:105A400080ED040AB6EE000A80ED050A9FED8A0A91
:105A500080ED060A704710B52DED068BB0EE408A3A
:105A6000B0EE609A0446F0EE418A84B900208D4978
:105A700008708D4908709FED800AF0EE408A9FED16
:105A80007E0A8A4880ED000A00207749087088481D
:105A90000078052815D2DFE800F00304080C100098
:105AA00010E00220824908700CE003208049087051
:105AB00008E004207E49087004E000207C4908705A
:105AC00000E000BF00BF7B4890ED000A38EEC00A3E
:105AD000B5EEC00AF1EE10FA04DD90ED000A38EEE2
